S01300006275696C642F6C6162622D342E733139B0
S3152000000037C10120EF30D02F971200009382C2B45F
S31520000010970000009380C00173901234374300008C
S31520000020130303887310033073002030EF30D05150
S315200000306F000000130101FF2326110023248100F5
S3152000004013040101B7170140938707403797666667
S315200000501307878823A0E700B71701409387074037
S315200000601307F0002398E700B7170140938707404E
S315200000701307000F239AE700B727014093870780CD
S3152000008003A70700B727014093870780137707FF49
S3152000009023A0E700B72701409387078003A707001F
S315200000A0B7270140938707801367270023A0E7001F
S315200000B0B7170140938707403727222213072722A5
S315200000C023A2E700B717014093870740130700F0E4
S315200000D0239AE700130000008320C1000324810037
S315200000E01301010167800000130101FF232611007F
S315200000F02324810013040101B7E700E0938707104A
S3152000010083A60700B7E700E093870710371700009C
S3152000011033E7E60023A0E700B7E700E09387071060
S3152000012083A60700B7E700E093870710370740004C
S3152000013033E7E60023A0E700B7E700E09387071040
S3152000014083A60700B7E700E09387071037078000EC
S3152000015033E7E60023A0E700B7E700E09387071020
S3152000016083A60700B7E700E093870710370700014B
S3152000017033E7E60023A0E700B7E700E09387071000
S3152000018083A60700B7E700E093870710370700022A
S3152000019033E7E60023A0E700B70701403737000022
S315200001A0130737332394E700B707014093870740A7
S315200001B003A78700B7070140938707401367F70017
S315200001C023A4E700B70701409387074003A7C7008A
S315200001D0B7070140938707401367F70023A6E70078
S315200001E0B70701409387074003A70700B7070140D9
S315200001F0938707401367F70023A0E700130000004A
S315200002008320C100032481001301010167800000BF
S31520000210130101FE232E1100232C81001304010259
S31520000220B7170140938707401307000F2398E7006D
S31520000230232604FE6F00C00C8327C4FE9387470045
S31520000240130710003317F700B717014093870740AD
S315200002501317070113570701239AE700232204FEE9
S315200002606F000001832744FE938717002322F4FEA4
S31520000270032744FE93073006E3D6E7FEB71701406F
S315200002809387074083D787002311F4FE232404FE97
S315200002906F008005035724FE832784FEB357F7405B
S315200002A093F71700639C0702B7170140938707400F
S315200002B01307000F239AE7008327C4FE93F7F70F4F
S315200002C09397270013F7F70F832784FE93F7F70FEB
S315200002D0B307F70093F7F70F6F008004832784FE98
S315200002E0938717002324F4FE032784FE9307300008
S315200002F0E3D2E7FA8327C4FE938717002326F4FE6A
S315200003000327C4FE93073000E3D8E7F2B71701406E
S31520000310938707401307000F239AE7009307F00FF0
S31520000320138507008320C1010324810113010102E3
S3152000033067800000130101FF23261100232481007A
S3152000034013040101B79700209387070D1307000FA9
S3152000035023A0E700B79700209387070D1307000A0D
S3152000036023A2E700B79700209387070D13073000D5
S3152000037023A4E700B79700209387070D13071000E3
S3152000038023A6E700B79700209387070D1307A00041
S3152000039023A8E700130000008320C1000324810066
S315200003A01301010167800000130101F52326110ABC
S315200003B02324510AF32230002322510A2320610AE2
S315200003C0232E7108232C8108232AA1082328B1086B
S315200003D02326C1082324D1082322E1082320F1085B
S315200003E0232E0107232C1107232AC1072328D107EF
S315200003F02326E1072324F1072726010427241104B5
S315200004002722210427203104272E4102272C51029E
S31520000410272A6102272871022726A1022724B10252
S315200004202722C1022720D102272EE100272CF10006
S31520000430272A0101272811012726C1012724D101B6
S315200004402722E1012720F1011304010BB797002091
S3152000045003A8072EB79700209387070D03A507004B
S31520000460B79700209387070D83A54700B7970020ED
S315200004709387070D03A60701B79700209387070DDB
S3152000048083A60701930710001307F001E700080071
S31520000490B797002003A8472EB79700209387870A8F
S315200004A003A50700B79700209387870A83A54700EF
S315200004B0B79700209387870A83A6C7009307100063
S315200004C01307F0011306A000E7000800B7970020E5
S315200004D003A8472EB79700209387C70B03A50700CD
S315200004E0B79700209387C70B83A54700B7970020AF
S315200004F09387C70B83A6C700930710001307F00145
S315200005001306A000E7000800B79700209387070D81
S3152000051003A70700B79700209387070D83A7070136
S3152000052063CCE70AB79700209387070D03A74700F8
S31520000530B79700209387C70B83A64700B79700205D
S315200005409387C70B83A7C70013D6F701B307F60017
S3152000055093D71740B307F040B387F600634EF704EE
S31520000560B79700209387070D03A74700B79700206A
S315200005709387C70B83A64700B79700209387C70B9F
S3152000058083A7C70013D6F701B307F60093D7174002
S31520000590B387F60063C2E702B79700209387070D5B
S315200005A083A787003307F040B79700209387070D6E
S315200005B023A4E7006F004002B79700209387C70B5C
S315200005C083A7070113871700B79700209387C70BC8
S315200005D023A8E700EFF01FD6B79700209387070DD3
S315200005E003A70700B79700209387070D83A7070166
S315200005F09306F01DB387F640634CF70AB7970020A1
S315200006009387070D03A74700B79700209387870A8C
S3152000061083A64700B79700209387870A83A7C7003A
S3152000062013D6F701B307F60093D71740B307F04068
S31520000630B387F600634EF704B79700209387070D1C
S3152000064003A74700B79700209387870A83A647000A
S31520000650B79700209387870A83A7C70013D6F70189
S31520000660B307F60093D71740B387F60063C2E702B5
S31520000670B79700209387070D83A787003307F0409D
S31520000680B79700209387070D23A4E7006F00400249
S31520000690B79700209387870A83A707011387170038
S315200006A0B79700209387870A23A8E700EFF09FC813
S315200006B0B79700209387070D03A74700B797002019
S315200006C09387070D83A7070163D4E702B797002016
S315200006D09387070D03A74700B79700209387070D39
S315200006E083A707019306F013B387F6406340F7020A
S315200006F0B79700209387070D83A7C7003307F040DD
S31520000700B79700209387070D23A6E700B797002009
S315200007109387070D03A70700B79700209387070D38
S3152000072083A787003307F700B79700209387070D25
S3152000073023A0E700B79700209387070D03A747005C
S31520000740B79700209387070D83A7C7003307F700C5
S31520000750B79700209387070D23A2E700B7970020BD
S315200007609387870A03A74700B79700209387870AAE
S3152000077083A787003307F700B79700209387870A58
S3152000078023A2E700B79700209387C70B03A747004C
S31520000790B79700209387C70B83A787003307F700F7
S315200007A0B79700209387C70B23A2E700B7970020AF
S315200007B003A8472EB79700209387870A03A507002B
S315200007C0B79700209387870A83A54700B79700200D
S315200007D09387870A83A6C70093071000370701006F
S315200007E01307F7FF1306A000E7000800B7970020BD
S315200007F003A8472EB79700209387C70B03A50700AA
S31520000800B79700209387C70B83A54700B79700208B
S315200008109387C70B83A6C7009307100037070100ED
S315200008201307F7FF1306A000E7000800B79700207C
S3152000083003A8072EB79700209387070D03A5070067
S31520000840B79700209387070D83A54700B797002009
S315200008509387070D03A60701B79700209387070DF7
S3152000086083A6070193071000370701001307F7FF38
S31520000870E7000800B7F700E003A74700B7F700E056
S315200008801377E7FF23A2E700130000008320C10AA5
S315200008908322410A739032008322810A0323010AAC
S315200008A08323C109032481090325410983250109DD
S315200008B00326C108832681080327410883270108C8
S315200008C00328C10783288107032E4107832E0107AA
S315200008D0032FC106832F81060720C10487208104A8
S315200008E007214104872101040722C10387228103AE
S315200008F007234103872301030725C1028725810298
S3152000090007264102872601020727C1018727810181
S315200009100728410187280101072EC100872E810063
S31520000920072F4100872F01001301010B7300203090
S31520000930130101F4232E110A232C510AF32230002D
S31520000940232A510A2328610A2326710A2324810A8D
S315200009502322A10A2320B10A232EC108232CD10841
S31520000960232AE1082328F108232601092324110933
S315200009702322C1092320D109232EE107232CF107A5
S31520000980272E0104272C1104272A21042728310485
S315200009902726410427245104272261042720710495
S315200009A0272EA102272CB102272AC1022728D102ED
S315200009B02726E1022724F1022722010327201103FB
S315200009C0272EC101272CD101272AE1012728F10151
S315200009D01304010CEFF0DF8393070500A307F4F45B
S315200009E00347F4F49307F00F630CF7088347F4F4F6
S315200009F0379700201307470E93972700B307F70072
S31520000A001307200023A0E700B79700209387870AC3
S31520000A101307300023A4E700B71701409387074048
S31520000A2083D7C7009397070193D7070193970701A9
S31520000A3093D7074193F7F70F1397070113570741EA
S31520000A408347F4F4938717009397070193D70741B9
S31520000A50939787009397070193D70741B367F700CA
S31520000A601397070113570741B7170140938707408C
S31520000A7013170701135707012396E7006F0000039A
S31520000A80B71701409387074083D7C70013970701FD
S31520000A9013570701B7170140938707401377F70FBE
S31520000AA013170701135707012396E70013000000C9
S31520000AB08320C10B8322410B739032008322810B4A
S31520000AC00323010B8323C10A0324810A0325410A38
S31520000AD08325010A0326C1098326810903274109A3
S31520000AE0832701090328C10883288108032E41088A
S31520000AF0832E0108032FC107832F81070720C105F5
S31520000B008720810507214105872101050722C10488
S31520000B108722810407234104872301040725C10373
S31520000B208725810307264103872601030727C1025C
S31520000B30872781020728410287280102072EC10143
S31520000B40872E8101072F4101872F01011301010CF7
S31520000B5073002030130101FF232611002324810076
S31520000B6013040101EFF00FCDEF008014EFF0CFD783
S31520000B70EF00C015B797002003A8472E9307100053
S31520000B801307F0019306F0131306F01D93050000DA
S31520000B9013050000E7000800B7870000138507D07B
S31520000BA0EF00C000130000006FF0DFFF130101FE0D
S31520000BB0232E1100232C8100130401022326A4FED8
S31520000BC0B7F700E023A007000327C4FE930707001A
S31520000BD093973700B387E70093974700138707005B
S31520000BE0B7F700E01307F7FF23A8E700B7F700E001
S31520000BF01307F00223A0E700130000008320C101A1
S31520000C00032481011301010267800000130101FF03
S31520000C10232611002324810013040101B7F700E0E5
S31520000C2023A00700130000008320C10003248100B5
S31520000C301301010167800000000000000000000091
S31520000C40000000000000000000000000000000007E
S31520000C50000000000000000000000000000000006E
S31520000C60000000000000000000000000000000005E
S31520000C706FF08FF30000000000000000000000006D
S31520000C80000000000000000000000000000000003E
S31520000C9000000000000000006FF09FC96FF05FC9E0
S31520000CA06FF01FC96FF0DFC81300000013000000AB
S31520000CB097020000938202F993E212007390523059
S31520000CC0678000001300000013000000130101FFDD
S31520000CD0232611002324810013040101B797002045
S31520000CE0372700201307876923A0E72EB797002010
S31520000CF0372700201307075323A2E72EB797002094
S31520000D00372700201307873723A4E72EB79700201D
S31520000D1037270020130787EC23A6E72EB797002056
S31520000D20372700201307070E23A8E72E13051000E8
S31520000D30EF105064130000008320C10003248100BB
S31520000D401301010167800000130101FF2326110012
S31520000D502324810013040101B7170040938707401D
S31520000D6023900700B717004093874740239007003A
S31520000D70B71700409387C74023900700B717004056
S31520000D809387074123900700B71700409387874230
S31520000D901307F0082390E700B71700409387C74250
S31520000DA01307703E2390E700B7170040938707404C
S31520000DB0130710002390E70013000000B717004028
S31520000DC09387074183D707009397070193D7070196
S31520000DD093F71700E38407FEB71700409387074071
S31520000DE023900700130000008320C1000324810004
S31520000DF01301010167800000130101FE232E11005B
S31520000E00232C8100130401022326A4FE6F008000F8
S31520000E10EFF09FF38327C4FE1387F7FF2326E4FE14
S31520000E20E39807FE13000000130000008320C10191
S31520000E30032481011301010267800000130101FFD1
S31520000E40232611002324810013040101B717004033
S31520000E509387074023900700B717004093870741E1
S31520000E6023900700B71700409387874223900700F7
S31520000E70B71700409387C7421307F0082390E7006F
S31520000E80B717004093870740130710002390E70009
S31520000E9013000000B71700409387074183D7070048
S31520000EA09397070193D7070193F71700E38407FE6B
S31520000EB0B7170040938707402390070013000000D0
S31520000EC08320C100032481001301010167800000F3
S31520000ED0130101FE232E1100232C8100130401028D
S31520000EE02326A4FE6F008000EFF05FF58327C4FE63
S31520000EF01387F7FF2326E4FEE39807FE130000007E
S31520000F00130000008320C101032481011301010283
S31520000F1067800000130101FF23261100232481008E
S31520000F2013040101B7170040938707402390070059
S31520000F30B71700409387074123900700B717004053
S31520000F409387874223900700B71700409387C742AD
S31520000F501307E0012390E700B71700409387074067
S31520000F60130710002390E70013000000B717004076
S31520000F709387074183D707009397070193D70701E4
S31520000F8093F71700E38407FEB717004093870740BF
S31520000F9023900700130000008320C1000324810052
S31520000FA01301010167800000130101FF23261100B0
S31520000FB02324810013040101EFF0DFF51300000064
S31520000FC08320C100032481001301010167800000F2
S31520000FD0130101FF2326110023248100130401019C
S31520000FE0B71702409387870183A60700B7170240E9
S31520000FF093878701371700001307D70033E7E600EA
S3152000100023A0E700B71702409387C70083A60700EF
S31520001010B71702409387C700371700001307D7007A
S3152000102033E7E60023A0E700B71702409387C700FF
S3152000103083A60700B71702409387C70037F7FFFF3D
S31520001040130727FF33F7E60023A0E700B717014071
S31520001050938747C003A70700B7170140938747C068
S31520001060131707011357070123A0E700B7170140FD
S31520001070938747C083A60700B7170140938747C0C9
S315200010803707333333E7E60023A0E700B7170140DD
S315200010909387078083A60700B717014093870780A9
S315200010A0370710001307F7FF33F7E60023A0E70002
S315200010B0B71701409387078083A60700B71701401B
S315200010C0938707803707B0B433E7E60023A0E7000D
S315200010D0B71701409387C78083D707001397070167
S315200010E013570701B71701409387C7801367070473
S315200010F013170701135707012390E700B71701407D
S315200011009387C7C083D707009396070193D6060116
S31520001110B71701409387C7C03787FFFF33E7E6003D
S3152000112013170701135707012390E700B71701404C
S315200011309387C7C083D707009396070193D60601E6
S31520001140B71701409387C7C03717000033E7E6007B
S3152000115013170701135707012390E700B7370140FC
S3152000116023900700B737014023920700B737014085
S315200011701307C0302390E700B7370140239E0700AE
S31520001180B7370140130770002398E700B7370140AF
S3152000119083D707001397070113570701B737014075
S315200011A01367070413170701135707012390E70056
S315200011B0B79700209387071823900700B79700203A
S315200011C09387071823910700B7970020938707185E
S315200011D023920700B79700209387071823830700D9
S315200011E0B79700209387071823940700B797002006
S315200011F09387071823950700B7970020938707182A
S3152000120023960700130000008320C10003248100D9
S315200012101301010167800000130101FD232611023D
S315200012202324810213040103232EA4FC93870500A3
S31520001230A30DF4FC231704FE8327C4FD83D7870060
S315200012402317F4FE8357E4FE93F7270063940700E1
S315200012506FF09FFE130000008347B4FD139707012C
S31520001260135707018327C4FD2396E7008327C4FD70
S3152000127083D787002317F4FE8357E4FE93F71700DE
S31520001280639407006FF09FFE130000008327C4FDC0
S3152000129083D7C7009397070193D7070193F7F70FD3
S315200012A0138507008320C102032481021301010351
S315200012B067800000130101FE232E1100232C8100DC
S315200012C0130401022326A4FE93870500A305F4FE3A
S315200012D0130000008327C4FE83D787009397070156
S315200012E093D7070193F72700E38607FE8347B4FECB
S315200012F013970701135707018327C4FE2396E70098
S315200013008327C4FE83D787009397070193D70701C6
S3152000131093F71700638607008327C4FE83D7C70089
S31520001320130000008320C10103248101130101025F
S3152000133067800000130101FE232E1100232C81005B
S31520001340130401022326A4FE130000008327C4FEF3
S3152000135083D787009397070193D7070193F7070849
S31520001360E39607FE8327C4FE83D78700939707015A
S3152000137093D7070193F71700638607008327C4FED8
S3152000138083D7C700130000008320C10103248101F5
S315200013901301010267800000130101FE232E1100B4
S315200013A0232C81001304010293070500A307F4FEF2
S315200013B0B71701409387C7C083D7070093960701C5
S315200013C093D60601B71701409387C7C03787000019
S315200013D01307F7FF33F7E600131707011357070123
S315200013E02390E700B71701409387C7C083D707002C
S315200013F09396070193D60601B71701409387C7C076
S3152000140037C7FFFF1307F7FF33F7E6001317070168
S31520001410135707012390E7008347F4FE93850700BF
S3152000142037350140EFF05FDFB71701409387C7C01C
S3152000143083D707009396070193D60601B717014075
S315200014409387C7C03787FFFF33E7E60013170701E7
S31520001450135707012390E700130000008320C101E2
S31520001460032481011301010267800000130101FE9C
S31520001470232E1100232C810013040102930705005B
S31520001480A307F4FEB71701409387C7C083D7070089
S315200014909396070193D60601B71701409387C7C0D5
S315200014A0378700001307F7FF33F7E6001317070106
S315200014B0135707012390E700B71701409387C7C04A
S315200014C083D707009396070193D60601B7170140E5
S315200014D09387C7C03747000033E7E6001317070195
S315200014E0135707012390E7008347F4FE93850700EF
S315200014F037350140EFF05FD2B71701409387C7C059
S3152000150083D707009396070193D60601B7170140A4
S315200015109387C7C03787FFFF33E7E6001317070116
S31520001520135707012390E700130000008320C10111
S31520001530032481011301010267800000130101FECB
S31520001540232E1100232C810013040102930705008A
S315200015502317F4FEB71701409387C7C083D7070028
S315200015609396070193D60601B71701409387C7C004
S31520001570378700001307F7FF33F7E6001317070135
S31520001580135707012390E700B71701409387C7C079
S3152000159083D707009396070193D60601B717014014
S315200015A09387C7C03747000033E7E60013170701C4
S315200015B0135707012390E700B797002083A7071941
S315200015C093F72700638E07028357E4FE93D787009D
S315200015D09397070193D7070193F7F70F9385070092
S315200015E037350140EFF05FC38357E4FE93F7F70FDB
S315200015F09385070037350140EFF01FC26F000008C2
S31520001600B797002083A7071993F717006388070663
S315200016108357E4FE93D787009397070193D7070153
S3152000162093F7F70F93F787FF93F7F70F9385070045
S3152000163037350140EFF05FBE8357E4FE93D737007E
S315200016409397070193D7070193F7F70F93F7C7FFF0
S3152000165093F7F70F9385070037350140EFF0DFBB8F
S315200016608357E4FE93F7F70F9397370093F7F70F17
S315200016709385070037350140EFF01FBAB7170140B1
S315200016809387C7C083D707009396070193D6060191
S31520001690B71701409387C7C03787FFFF33E7E600B8
S315200016A013170701135707012390E70013000000C3
S315200016B08320C101032481011301010267800000F8
S315200016C0130101FE232E1100232C81001304010295
S315200016D093070500138706002317F4FE938705005A
S315200016E02316F4FE930706002315F4FE930707003E
S315200016F02314F4FEB79700209387071883D7A700F3
S3152000170093F7F70F13850700EFF01FC98357E4FE01
S3152000171093D787009397070193D7070193F7F70F7E
S3152000172013850700EFF09FD48357E4FE93F7F70F56
S3152000173013850700EFF09FD38357A4FE93D7870026
S315200017409397070193D7070193F7F70F13850700A0
S31520001750EFF0DFD18357A4FE93F7F70F1385070029
S31520001760EFF0DFD013050000EFF01FC3B79700207E
S315200017709387071883D7C70093F7F70F13850700BA
S31520001780EFF09FC18357C4FE93D787009397070135
S3152000179093D7070193F7F70F13850700EFF01FCDB7
S315200017A08357C4FE93F7F70F13850700EFF01FCC7E
S315200017B0835784FE93D787009397070193D7070112
S315200017C093F7F70F13850700EFF05FCA835784FE60
S315200017D093F7F70F13850700EFF05FC91305000095
S315200017E0EFF09FBBB79700209387071883D7870012
S315200017F093F7F70F13850700EFF01FBA13000000C9
S315200018008320C101032481011301010267800000A6
S31520001810130101FD2326110223248102130401034F
S3152000182093070500231FF4FCB7970020938707181A
S3152000183083D707009387F7FF1397070113570701ED
S31520001840B79700209387071883D727009387F7FF3A
S315200018509397070193D7070193860700130607007E
S315200018609305000013050000EFF09FE5B717014030
S315200018709387C7C083D707009396070193D606019F
S31520001880B71701409387C7C0378700001307F7FFB4
S3152000189033F7E60013170701135707012390E700D4
S315200018A0B71701409387C7C083D7070093960701D0
S315200018B093D60601B71701409387C7C03747000064
S315200018C033E7E60013170701135707012390E700B4
S315200018D0B797002083A7071993F72700638E070879
S315200018E08357E4FD93D787009397070193D7070182
S315200018F02302F4FE8357E4FDA301F4FE232604FE0F
S315200019006F00C005232404FE6F000003834744FEB6
S315200019109385070037350140EFF0DF99834734FE82
S315200019209385070037350140EFF0DF98832784FE43
S31520001930938717002324F4FEB79700209387071870
S3152000194083D7070013870700832784FEE3E0E7FC9D
S315200019508327C4FE938717002326F4FEB79700201B
S315200019609387071883D72700138707008327C4FE8A
S31520001970E3EAE7F86F00400EB797002083A7071920
S3152000198093F71700638A070C8357E4FD93D78700E4
S315200019909397070193D7070193F7F70F93F787FFDD
S315200019A0A303F4FE8357E4FD93D7370093970701EB
S315200019B093D7070193F7F70F93F7C7FF2303F4FE97
S315200019C08357E4FD93F7F70F93973700A302F4FEAE
S315200019D0232604FE6F00C006232404FE6F000004A5
S315200019E0834774FE9385070037350140EFF09F8CBF
S315200019F0834764FE9385070037350140EFF09F8BC0
S31520001A00834754FE9385070037350140EFF09F8AC0
S31520001A10832784FE938717002324F4FEB79700209C
S31520001A209387071883D7070013870700832784FE29
S31520001A30E3E8E7FA8327C4FE938717002326F4FEFC
S31520001A40B79700209387071883D7270013870700A7
S31520001A508327C4FEE3E2E7F837350140EFF09F8D98
S31520001A60B71701409387C7C083D70700939607010E
S31520001A7093D60601B71701409387C7C03787FFFF64
S31520001A8033E7E60013170701135707012390E700F2
S31520001A90130000008320C1020324810213010103E5
S31520001AA067800000130101FE232E1100232C8100E4
S31520001AB0130401022326A4FEB79700209387071854
S31520001AC01307A0022395E700B797002093870718EE
S31520001AD01307B0022396E700B797002093870718CD
S31520001AE01307C0022394E7008327C4FE13F7F70FDA
S31520001AF0B7970020938707182383E7000327C4FEA0
S31520001B0093073000630EF70C0327C4FE93073000BB
S31520001B1063C2E7100327C4FE930720006308F70873
S31520001B200327C4FE9307200063C6E70E8327C4FE5F
S31520001B30638A07000327C4FE93071000630EF7028B
S31520001B406F00400DB79700209387071813070014DE
S31520001B502390E700B7970020938707181307001EE6
S31520001B602391E70013056003EFF01F83130580041C
S31520001B70EFF0DF8F6F00400AB79700209387071892
S31520001B801307001E2390E700B797002093870718B6
S31520001B90130700142391E70013056003EFF0CFFF2E
S31520001BA013058002EFF09F8C6F000007B797002087
S31520001BB093870718130700142390E700B797002090
S31520001BC0938707181307001E2391E7001305600368
S31520001BD0EFF08FFC13058008EFF05F896F00C003DC
S31520001BE0B7970020938707181307001E2390E70056
S31520001BF0B797002093870718130700142391E7004F
S31520001C0013056003EFF04FF91305800EEFF01F86E2
S31520001C106F00800013000000130000008320C10124
S31520001C20032481011301010267800000130101FDD5
S31520001C30232611022324810213040103930705009E
S31520001C40231FF4FC93870500231EF4FC930706004C
S31520001C50231DF4FC93870600231CF4FC930707003E
S31520001C60231BF4FC8357A4FD138707008357E4FD49
S31520001C70B307F7409397070193D707019387170078
S31520001C802315F4FE835784FD138707008357C4FD6D
S31520001C90B307F7409397070193D707019387170058
S31520001CA02314F4FE835684FD0356A4FD0357C4FD76
S31520001CB08357E4FD9305070013850700EFF05FA027
S31520001CC0B71701409387C7C083D7070093960701AC
S31520001CD093D60601B71701409387C7C03787000000
S31520001CE01307F7FF33F7E60013170701135707010A
S31520001CF02390E700B71701409387C7C083D7070013
S31520001D009396070193D60601B71701409387C7C05C
S31520001D103747000033E7E60013170701135707017B
S31520001D202390E700B797002083A7071993F727008A
S31520001D3063820708835764FD93D78700939707012B
S31520001D4093D707012302F4FE835764FDA301F4FE13
S31520001D50231704FE6F000005231604FE6F00000300
S31520001D60834744FE9385070037350140EFF08FD433
S31520001D70834734FE9385070037350140EFF08FD334
S31520001D808357C4FE938717002316F4FE0357C4FE19
S31520001D908357A4FEE366F7FC8357E4FE9387170078
S31520001DA02317F4FE0357E4FE835784FEE366F7FA0F
S31520001DB06F00C00CB797002083A7071993F7170069
S31520001DC0638E070A835764FD93D78700939707018D
S31520001DD093D7070193F7F70F93F787FFA303F4FE33
S31520001DE0835764FD93D737009397070193D707014D
S31520001DF093F7F70F93F7C7FF2303F4FE835764FD8A
S31520001E0093F7F70F93973700A302F4FE231704FEE8
S31520001E106F000006231604FE6F000004834774FE3D
S31520001E209385070037350140EFF0CFC8834764FE1E
S31520001E309385070037350140EFF0CFC7834754FE1F
S31520001E409385070037350140EFF0CFC68357C4FE90
S31520001E50938717002316F4FE0357C4FE8357A4FE68
S31520001E60E36EF7FA8357E4FE938717002317F4FEF1
S31520001E700357E4FE835784FEE36EF7F837350140B7
S31520001E80EFF04FCBB71701409387C7C083D7070022
S31520001E909396070193D60601B71701409387C7C0CB
S31520001EA03787FFFF33E7E6001317070113570701AC
S31520001EB02390E700130000008320C102032481023F
S31520001EC01301010367800000130101FE232E110078
S31520001ED0232C8100130401022326A4FE2324B4FE0E
S31520001EE0930706002313F4FE8327C4FE9397070166
S31520001EF093D70701032784FE1317070113570701FA
S31520001F008326C4FE1396060113560601832684FEF5
S31520001F109396060193D606019305070013850700BD
S31520001F20EFF00FFA835764FE13850700EFF00FE1F9
S31520001F30130000008320C101032481011301010243
S31520001F4067800000130101FC232E1102232C81023D
S31520001F5013040104232EA4FC232CB4FC232AC4FC42
S31520001F602328D4FC2326E4FC2324F4FC832784FCA6
S31520001F7063860708032744FD8327C4FDB307F7407C
S31520001F802326F4FE6F000006032704FD832784FD25
S31520001F90B307F7000327C4FC1317070113570701DC
S31520001FA013060700938507000325C4FEEFF0DFF133
S31520001FB0032704FD832784FDB307F7400327C4FCCA
S31520001FC01317070113570701130607009385070008
S31520001FD00325C4FEEFF05FEF8327C4FE9387170027
S31520001FE02326F4FE032744FD8327C4FDB307F70009
S31520001FF00327C4FEE3DAE7F86F00400D0327C4FD8C
S31520002000832744FDB306F700032784FD832704FDB9
S31520002010B307F7000327C4FC13170701135707015B
S31520002020130607009385070013850600EFF0DFE906
S31520002030032744FD8327C4FDB306F740032784FD09
S31520002040832704FDB307F7000327C4FC13170701F2
S31520002050135707011306070093850700138506000B
S31520002060EFF09FE60327C4FD832744FDB306F70060
S31520002070032704FD832784FDB307F7400327C4FC09
S315200020801317070113570701130607009385070047
S3152000209013850600EFF05FE3032744FD8327C4FD85
S315200020A0B306F740032704FD832784FDB307F740D3
S315200020B00327C4FC1317070113570701130607004C
S315200020C09385070013850600EFF01FE0130000003C
S315200020D08320C103032481031301010467800000C8
S315200020E0130101FC232E1102232C81021304010467
S315200020F0232EA4FC232CB4FC232AC4FC2328D4FCA2
S315200021002326E4FC8327C4FD1395070113550501F7
S31520002110832784FD9395070193D505018327C4FD65
S315200021201397070113570701832704FD9397070188
S3152000213093D70701B307F7009397070193D70701B2
S315200021409387F7FF1396070113560601832784FD0D
S3152000215013970701135707018327C4FC9397070199
S3152000216093D70701B307F7009397070193D7070182
S315200021709387F7FF9397070193D707019386070065
S31520002180EFF00FD4B71701409387C7C083D7070056
S315200021909396070193D60601B71701409387C7C0C8
S315200021A0378700001307F7FF33F7E60013170701F9
S315200021B0135707012390E700B71701409387C7C03D
S315200021C083D707009396070193D60601B7170140D8
S315200021D09387C7C03747000033E7E6001317070188
S315200021E0135707012390E700032704FD8327C4FC28
S315200021F0B307F7022322F4FEB797002083A7071917
S3152000220093F72700638A0706232604FE6F00C0057E
S315200022108327C4FE93971700032744FDB307F700CF
S3152000222083D707002310F4FE835704FE93D7870035
S315200022309397070193D7070193F7F70F9385070025
S3152000224037350140EFF00F87835704FE93F7F70FDA
S315200022509385070037350140EFF0CF858327C4FEED
S31520002260938717002326F4FE0327C4FE832744FE04
S31520002270E340F7FA6F00800BB797002083A7071972
S3152000228093F717006384070A232404FE6F0040098E
S31520002290832784FE93971700032744FDB307F7008F
S315200022A083D707002311F4FE835724FE93D7870094
S315200022B09397070193D7070193F7F70F93F787FFB4
S315200022C093F7F70F9385070037350140EFE09FFE20
S315200022D0835724FE93D737009397070193D7070197
S315200022E093F7F70F93F7C7FF93F7F70F9385070039
S315200022F037350140EFE01FFC835724FE93F7F70F95
S315200023009397370093F7F70F9385070037350140EA
S31520002310EFE05FFA832784FE938717002324F4FED9
S31520002320032784FE832744FEE344F7F6373501402E
S31520002330EFF04F80B71701409387C7C083D70700B8
S315200023409396070193D60601B71701409387C7C016
S315200023503787FFFF33E7E6001317070113570701F7
S315200023602390E700130000008320C1030324810388
S315200023701301010467800000130101FA232E1104C2
S31520002380232C810413040106232EA4FA232CB4FA49
S31520002390232AC4FA2328D4FA930707002317F4FA2A
S315200023A0232404FE232204FE032744FB8327C4FBA5
S315200023B0B307F7402320F4FE032704FB832784FB7F
S315200023C0B307F740232EF4FC8327C4FB2326F4FC13
S315200023D0832784FB2324F4FC832704FE6358F00020
S315200023E093071000232AF4FC6F008002832704FE43
S315200023F063960700232A04FC6F0080019307F0FFF1
S31520002400232AF4FC832704FEB307F0402320F4FE9E
S315200024108327C4FD6358F000930710002328F4FC9B
S315200024206F0080028327C4FD63960700232804FCDF
S315200024306F0080019307F0FF2328F4FC8327C4FD57
S31520002440B307F040232EF4FC032704FE8327C4FDA4
S3152000245063D8E700832704FE232CF4FC6F00C0001A
S315200024608327C4FD232CF4FC231704FE6F00C00928
S315200024708357E4FA13860700832584FC0325C4FCCE
S31520002480EFF09FA4032784FE832704FEB307F700FB
S315200024902324F4FE032744FE8327C4FDB307F70055
S315200024A02322F4FE032784FE832784FD63D2E702DA
S315200024B0032784FE832784FDB307F7402324F4FEF5
S315200024C00327C4FC832744FDB307F7002326F4FC27
S315200024D0032744FE832784FD63D2E702032744FEB5
S315200024E0832784FDB307F7402322F4FE032784FCC9
S315200024F0832704FDB307F7002324F4FC8357E4FE67
S31520002500938717002317F4FE0357E4FE832784FDE1
S3152000251093871700E3DEE7F41300000013000000A2
S315200025208320C1050324810513010106678000006D
S31520002530130101FD23261102232481021304010322
S315200025402326A4FE2324B4FE2322C4FE2320D4FE65
S31520002550232CF4FC93070700231FF4FC832784FD18
S31520002560638A07068327C4FE1395070113550501C1
S31520002570832784FE9395070193D505018327C4FEFF
S315200025801397070113570701832744FE93970701E3
S3152000259093D70701B307F7001396070113560601D1
S315200025A0832784FE1397070113570701832704FE09
S315200025B09397070193D70701B307F700939707016E
S315200025C093D707010357E4FD93860700EFF00FE644
S315200025D06F00400B0327C4FE832744FEB307F70092
S315200025E00357E4FD832684FE13860700832584FE95
S315200025F00325C4FEEFF05FD8032784FE832704FE5D
S31520002600B307F7000357E4FD938607000326C4FEAD
S31520002610832584FE0325C4FEEFF01FD60327C4FEC0
S31520002620832744FE3305F7000327C4FE832744FE91
S315200026303306F700032784FE832704FEB307F7003B
S315200026400357E4FD93860700832584FEEFF0DFD24F
S31520002650032784FE832704FEB305F7000327C4FE61
S31520002660832744FE3306F700032784FE832704FED0
S31520002670B307F7000357E4FD938607000325C4FE3E
S31520002680EFF09FCF130000008320C10203248102B4
S315200026901301010367800000130101FA232E1104A0
S315200026A0232C8104232A21052328310523264105AD
S315200026B02324510513040106232EA4FA232CB4FA4D
S315200026C0232AC4FA2328D4FA2324F4FA93070700EA
S315200026D02317F4FA232804FC832704FB2326F4FC7F
S315200026E0832704FB3387F702832744FBB386F7024D
S315200026F0832704FBB387F602B307F7401385070049
S31520002700EF30105E1309050093890500032544FB6D
S31520002710EF30105D1307050093870500B79600205C
S3152000272003A686CA83A6C6CA130507009385070093
S31520002730EF2010361307050093870500130A0700BC
S31520002740938A0700032544FBEF30905913070500B1
S3152000275093870500130607009386070013050A00D2
S3152000276093850A00EF20D0321307050093870500D2
S3152000277013060700938607001305090093850900B1
S31520002780EF20C006130705009387050013050700F1
S3152000279093850700EF30D05ED307A520272EF4FCC3
S315200027A0832704FB3387F702832704FDB307F70249
S315200027B093971700D3F707D0272CF4FC832744FBE5
S315200027C03387F7028327C4FCB307F70293971700D2
S315200027D0D3F707D0272AF4FC6F00800F0357E4FABB
S315200027E0832784FA832684FB0326C4FB8325C4FC23
S315200027F0032504FDEFF00FF58727C4FD530700F0EE
S31520002800D397E7A0639407006F000005832704FD94
S31520002810938717002328F4FC832704FBB387F7024A
S3152000282093971700D3F707D0072784FDD377F700B0
S31520002830272CF4FC0727C4FD872784FD5377F70050
S31520002840832704FBB387F702D3F707D0D377F700A4
S31520002850272EF4FC6F00C007832704FD93871700FB
S315200028602328F4FC8327C4FC9387F7FF2326F4FC54
S31520002870832704FBB387F70293971700D3F707D074
S31520002880072784FDD377F700272CF4FC832744FB06
S31520002890B387F70293971700D3F707D0072744FD8E
S315200028A0D377F708272AF4FC0727C4FD872784FD5A
S315200028B05377F700872744FD5377F708832704FBD0
S315200028C0B387F702D3F707D0D377F700272EF4FC88
S315200028D0072784FD872744FDD317F7A0E39007F049
S315200028E0832704FBB387F70213850700EF30503F99
S315200028F01309050093890500032504FDEF30503E9A
S315200029001307050093870500B796002003A606CB7C
S3152000291083A646CB1305070093850700EF10106D9D
S315200029201307050093870500130A0700938A0700FB
S31520002930032504FDEF30D03A1307050093870500E1
S31520002940B796002003A606CB83A646CB1305070021
S3152000295093850700EF1090691307050093870500FC
S31520002960130607009386070013050A0093850A00BD
S31520002970EF201012130705009387050013060700A2
S31520002980938607001305090093850900EF20501050
S31520002990130705009387050013090700938907008D
S315200029A0832744FB3387F7028327C4FC9386F7FFEC
S315200029B08327C4FC9387F7FFB387F602B307F70292
S315200029C013850700EF30D0311307050093870500E4
S315200029D0130607009386070013050900938509004F
S315200029E0EF10D06013070500938705001309070031
S315200029F093890700832744FB3387F702832704FB49
S31520002A003307F702832704FBB307F7021385070072
S31520002A10EF30102D130705009387050013060700D6
S31520002A20938607001305090093850900EF20D07FC0
S31520002A3013070500938705001305070093850700F4
S31520002A40EF301034D307A5202724F4FC6F00800F25
S31520002A500357E4FA832784FA832684FB0326C4FBE0
S31520002A608325C4FC032504FDEFF0CFCD872784FC06
S31520002A70530700F0D317F7A0639407006F000005F3
S31520002A808327C4FC9387F7FF2326F4FC832744FB84
S31520002A90B387F70293971700D3F707D0072744FD8C
S31520002AA0D377F708272AF4FC832744FBB387F7025A
S31520002AB053F707D0872784FC5377F700872744FDF1
S31520002AC0D377F7082724F4FC6F00C0078327C4FCBC
S31520002AD09387F7FF2326F4FC832704FD93871700AB
S31520002AE02328F4FC832704FBB387F7029397170068
S31520002AF0D3F707D0072784FDD377F700272CF4FCDC
S31520002B00832744FBB387F70293971700D3F707D0A1
S31520002B10072744FDD377F708272AF4FC072784FCE8
S31520002B20872784FD5377F700872744FD5377F708D7
S31520002B30832744FBB387F702D3F707D0D377F70071
S31520002B402724F4FC8327C4FCE3D407F013000000F9
S31520002B50130000008320C1050324810503294105B4
S31520002B6083290105032AC104832A8104130101064E
S31520002B7067800000130101FE232E1100232C810003
S31520002B80130401022326A4FE8327C4FE93F77700AD
S31520002B90130720006346F700634CF0006F00C00067
S31520002BA0130740006386E700930700006F00100EAE
S31520002BB013000000B79700200327C4FE23A8E718B8
S31520002BC0B71702409387C70103A70700B71702402C
S31520002BD09387C7011367070223A0E700B7170240B0
S31520002BE09387070103A70700B717024093870701BA
S31520002BF01367070223A0E700B71702409387070150
S31520002C0003A70700B7170240938707011377F7FD3D
S31520002C1023A0E700B71700409387074023900700BB
S31520002C20EFE00FBBB71701409387C7C083D70700D4
S31520002C309396070193D60601B71701409387C7C01D
S31520002C4037E7FFFF1307F7FF33F7E60013170701F0
S31520002C50135707012390E700B71701409387C7C092
S31520002C6083D707009396070193D60601B71701402D
S31520002C709387C7C037F7FFFF1307F7FF33F7E60041
S31520002C8013170701135707012390E7001305800C3C
S31520002C90EFE08F96B71701409387C7C083D7070009
S31520002CA09396070193D60601B71701409387C7C0AD
S31520002CB03717000033E7E6001317070113570701FC
S31520002CC02390E70013058007EFE00F93130510000C
S31520002CD0EFE08FEC8327C4FE93F72700638807284D
S31520002CE01305000FEFE04FEB1305300CEFE00FF864
S31520002CF01305000FEFE04FEA13056009EFE00FF729
S31520002D0013056003EFE04FE913058006EFE00FF6A9
S31520002D101305A003EFE04FE813055000EFE00FF591
S31520002D201305000BEFE04FE713050008EFE00FF463
S31520002D301305600BEFE04FE613050000EFE00FF3FD
S31520002D4013052000EFE08FF21305500BEFE0CFE4E0
S31520002D5013052000EFE08FF113053000EFE00FF1AF
S31520002D6013050000EFE08FF013054000EFE00FF0B1
S31520002D701305100BEFE04FE213050008EFE00FEF0D
S31520002D8013050001EFE08FEE1305400BEFE0CFE0D7
S31520002D9013050000EFE08FED1305700BEFE0CFDF9A
S31520002DA01305600CEFE08FEC1305500CEFE0CFDE3F
S31520002DB013054002EFE08FEB1305400EEFE0CFDD69
S31520002DC013051003EFE08FEA1305800EEFE0CFDC4A
S31520002DD013050004EFE08FE91305A008EFE00FE9E3
S31520002DE013050000EFE08FE813050000EFE00FE881
S31520002DF013059002EFE08FE713059001EFE00FE750
S31520002E001305500AEFE08FE613053003EFE00FE6D7
S31520002E101305200CEFE04FD81305700AEFE0CFD74B
S31520002E201305000EEFE04FD71305000FEFE00FE478
S31520002E3013059000EFE08FE313053001EFE00FE379
S31520002E4013052001EFE08FE213052001EFE00FE2EA
S31520002E501305B002EFE08FE11305C003EFE00FE1A9
S31520002E6013054004EFE08FE01305B004EFE00FE018
S31520002E701305B001EFE08FDF13058001EFE00FDFD0
S31520002E8013057001EFE08FDE1305D001EFE00FDEB2
S31520002E9013051002EFE08FDD1305100EEFE0CFCF04
S31520002EA01305000FEFE08FDC13059000EFE00FDC39
S31520002EB013053001EFE08FDB1305C000EFE00FDBD9
S31520002EC01305D000EFE08FDA13057002EFE00FDA7A
S31520002ED01305B003EFE08FD913054004EFE00FD9B7
S31520002EE01305D004EFE08FD81305B000EFE00FD81C
S31520002EF013057001EFE08FD713057001EFE00FD7B0
S31520002F001305D001EFE08FD613051002EFE00FD6A0
S31520002F1013056003EFE04FC81305C00EEFE00FD591
S31520002F201305000FEFE04FC71305300CEFE00FD469
S31520002F301305000FEFE04FC613059006EFE00FD301
S31520002F4013053001EFE04FC513053001EFE0CFC484
S31520002F5013051001EFE04FC413059002EFE0CFC335
S31520002F6013051000EFE01FB46F00004A8327C4FE4C
S31520002F7093F71700638C07221305700FEFE0CFC17C
S31520002F801305900AEFE08FCE13051005EFE00FCE64
S31520002F901305C002EFE08FCD13052008EFE00FCD1B
S31520002FA01305000CEFE04FBF13051001EFE00FCC27
S31520002FB013059000EFE08FCB1305100CEFE0CFBD8B
S31520002FC013054004EFE08FCA1305500CEFE0CFBC89
S31520002FD013050000EFE08FC91305A000EFE00FC92D
S31520002FE013050008EFE08FC81305100BEFE0CFBAEA
S31520002FF01305000BEFE08FC713051001EFE00FC795
S315200030001305400BEFE04FB913052000EFE00FC684
S315200030101305600BEFE04FB813052000EFE00FC556
S3152000302013052000EFE08FC41305B003EFE00FC4B3
S315200030301305700BEFE04FB61305600CEFE00FC3DE
S315200030401305E00BEFE04FB513050000EFE00FC2CC
S3152000305013054000EFE08FC11305900EEFE0CFB3CC
S3152000306013050000EFE08FC013056003EFE0CFB239
S3152000307013058004EFE08FBF1305A003EFE0CFB167
S3152000308013056000EFE08FBE1305000EEFE0CFB012
S3152000309013050000EFE08FBD13057000EFE00FBDB4
S315200030A013050001EFE08FBC13059000EFE00FBC85
S315200030B013057001EFE08FBB1305B000EFE00FBBE7
S315200030C013051004EFE08FBA13059008EFE00FBA4E
S315200030D01305B004EFE08FB91305A000EFE00FB998
S315200030E01305C000EFE08FB81305E000EFE00FB83E
S315200030F013058001EFE08FB71305B001EFE00FB79E
S315200031001305F000EFE08FB61305100EEFE0CFA801
S3152000311013050000EFE08FB513057001EFE00FB542
S315200031201305A001EFE08FB413054000EFE00FB4C4
S315200031301305E000EFE08FB313056000EFE00FB357
S315200031401305F002EFE08FB213055004EFE00FB243
S3152000315013053004EFE08FB113052000EFE00FB127
S315200031601305A000EFE08FB013059000EFE00FB03D
S3152000317013052003EFE08FAF13056003EFE00FAFD9
S315200031801305F000EFE08FAE13051001EFE0CFA09E
S315200031901305800CEFD05FC613059002EFE0CF9F9A
S315200031A013051000EFE01F906F0000268327C4FE52
S315200031B093F74700638A07241305100FEFE0CF9D8E
S315200031C013056003EFE08FAA13054000EFE00FAA76
S315200031D013050000EFE08FA91305C003EFE00FA948
S315200031E01305F000EFE08FA81305F008EFE00FA815
S315200031F01305200FEFE04F9A13058001EFE00FA78C
S315200032001305300AEFE08FA613052001EFE00FA685
S3152000321013052000EFE08FA51305200BEFE00FA587
S3152000322013052001EFE08FA41305F00FEFE00FA4A4
S3152000323013050001EFE08FA313050000EFE00FA3B5
S315200032401305800FEFE04F9513051002EFE00FA254
S3152000325013054000EFE08FA11305900FEFE0CF9309
S3152000326013050000EFE08FA013058000EFE00FA00C
S3152000327013056003EFE04F9213058000EFE00F9FE8
S315200032801305400BEFE04F9113050000EFE00F9E72
S315200032901305100CEFE04F9013057004EFE00F9D1F
S315200032A01305500CEFE04F8F13050000EFE00F9C45
S315200032B01305F00AEFE08F9B13050008EFE00F9B44
S315200032C013050000EFE08F9A1305000EEFE0CF8C78
S315200032D01305F000EFE08F991305F001EFE00F9949
S315200032E01305C001EFE08F981305C000EFE00F989B
S315200032F01305F000EFE08F9713058000EFE00F979E
S3152000330013058004EFE08F9613058009EFE00F96F2
S3152000331013057003EFE08F951305A000EFE00F95DE
S3152000332013053001EFE08F9413054000EFE00F9472
S3152000333013051001EFE08F931305D000EFE00F93F4
S3152000334013050000EFE08F921305100EEFE0CF84F7
S315200033501305F000EFE08F9113052003EFE00F91A6
S315200033601305E002EFE08F901305B000EFE00F9019
S315200033701305D000EFE08F8F13055000EFE00F8F7D
S3152000338013057004EFE08F8E13055007EFE00F8EC4
S3152000339013057003EFE08F8D13056000EFE00F8DAE
S315200033A013050001EFE08F8C13053000EFE00F8C42
S315200033B013054002EFE08F8B13050002EFE00F8B21
S315200033C013050000EFE08F8A1305A003EFD0DFFC82
S315200033D013056006EFE08F8913051001EFD0DFFBA0
S315200033E013056003EFD05FFB13058002EFE00F8823
S315200033F013058007EFD05FA013059002EFD0DFF909
S3152000340013053000EFE00FEAB797002093870718DF
S3152000341083D707009387F7FF1397070113570701F1
S31520003420B79700209387071883D727009387F7FF3E
S315200034309397070193D70701938607001306070082
S315200034409305000013050000EFE08FA7B7070100E2
S31520003450138507FEEFE0CFBBB71701409387C7C0A0
S3152000346083D707009396070193D60601B717014025
S315200034709387C7C03727000033E7E60013170701F5
S31520003480135707012390E7009307100013850700C1
S315200034908320C101032481011301010267800000FA
S315200034A0130101FE232E1100232C81001304010297
S315200034B0232604FE232404FEB717024003A7070091
S315200034C0B71702401367170023A0E700B71702407B
S315200034D09387470083A60700B717024093874700C4
S315200034E03707FFF833F7E60023A0E700B7170240B7
S315200034F083A60700B71702403707F7FE1307F7FF23
S3152000350033F7E60023A0E700B717024083A607009B
S31520003510B71702403707FCFF1307F7FF33F7E6001C
S3152000352023A0E700B71702409387470083A607002A
S31520003530B717024093874700370781FF1307F7FF26
S3152000354033F7E60023A0E700B717024083A607005B
S31520003550B7170240370700EC1307F7FF33F7E600EB
S3152000356023A0E700B7170240938787003707FF009D
S3152000357023A0E700B71702409387C70223A00700BE
S31520003580B717024083A60700B71702403707010086
S3152000359033E7E60023A0E700B717024003A707009A
S315200035A0B7070200B377F7002324F4FE8327C4FE6F
S315200035B0938717002326F4FE832784FE639807004B
S315200035C00327C4FE9307401FE318F7FCB7170240F2
S315200035D003A70700B7070200B377F7006396070033
S315200035E0930710006F00C011B717024013874700DA
S315200035F0B7170240938747000327070023A0E70059
S31520003600B717024013874700B71702409387470032
S315200036100327070023A0E700B71702409387C702B6
S3152000362003A70700B71702409387C702136707400F
S3152000363023A0E700B71702409387470083A6070019
S31520003640B7170240938747003707C1FF1307F7FFD5
S3152000365033F7E60023A0E700B71702409387470019
S3152000366083A60700B7170240938747003707010054
S3152000367033E7E60023A0E700B717024083A607003A
S31520003680B71702403707000133E7E60023A0E7001B
S3152000369013000000B717024003A70700B707000270
S315200036A0B377F700E38807FEB717024093874700F2
S315200036B003A70700B7170240938747001377C7FF72
S315200036C023A0E700B71702409387470003A7070008
S315200036D0B7170240938747001367270023A0E70008
S315200036E013000000B71702409387470083A70700FF
S315200036F013F7C70093078000E316F7FE9307000031
S31520003700138507008320C1010324810113010102CF
S3152000371067800000130101FD232611022324510294
S31520003720232281022320A102232EB100232CC100B3
S31520003730232AD1002328E1002326F1002324010196
S3152000374013040103B717004083D707011397070116
S3152000375013570701B71700401377E7FF1317070121
S31520003760135707012398E700B797002003A7871967
S3152000377083A7C71913051000930500003306A70079
S31520003780130806003338E800B386B700B307D8001D
S31520003790938607001307060093870600B796002036
S315200037A023ACE61823AEF618130000008320C102CE
S315200037B08322810203244102032501028325C101BC
S315200037C00326810183264101032701018327C100A6
S315200037D0032881001301010373002030130101FE29
S315200037E0232E1100232C8100130401022326A4FE7C
S315200037F0B797002003A7871983A7C7198327C4FE75
S3152000380023A2E7008327C4FE03A747008327C4FE1D
S3152000381023A0E700B797002003A7871983A7C71916
S3152000382093070700138507008320C1010324810124
S315200038301301010267800000130101FD23261102F6
S315200038402324810213040103232EA4FC232CB4FC7D
S31520003850B797002003A7871983A7C7192324E4FE57
S315200038602326F4FE032784FE8327C4FE1306400680
S31520003870930600001305070093850700EF00807666
S3152000388013070500938705008326C4FD23A0E600C1
S3152000389023A2F600032784FE8327C4FE13064006D0
S315200038A0930600001305070093850700EF005032AA
S315200038B013070500938705008327C4FD23A4E7008B
S315200038C093070000138507008320C1020324810289
S315200038D01301010367800000130101FE232E11004E
S315200038E0232C8100130401022326A4FE2324B4FEE4
S315200038F08327C4FE03A7070083A747009305400636
S315200039003385B70293050000B305B7023305B5002A
S31520003910930540063303B702B338B70213080300F2
S31520003920B30715019388070013070800938708003B
S31520003930B795002023ACE51823AEF5188327C4FEDF
S3152000394083A787001386070093D7F741938607003E
S31520003950B797002003A5871983A5C7193307A600A3
S31520003960130807003338C800B387B600B306F8003B
S3152000397093870600B796002023ACE61823AEF618E8
S3152000398093070000138507008320C10103248101CA
S315200039901301010267800000130101FF2326110095
S315200039A02324810013040101B74701409387078030
S315200039B083D707009397070193D7070193F7070249
S315200039C063800702B74701409387078083D7470064
S315200039D09397070193D7070193F7F70F6F0080009E
S315200039E093070000138507008320C100032481006C
S315200039F01301010167800000130101FE232E11002F
S31520003A00232C81001304010293070500A307F4FE6B
S31520003A10B7470140938707800347F4FE1317070132
S31520003A20135707012392E70013000000B747014010
S31520003A309387078083D707009397070193D70701BA
S31520003A4093F70708E38407FE130000001300000025
S31520003A508320C10103248101130101026780000034
S31520003A60130101FD232611022324810213040103DD
S31520003A70232EA4FCB797002083A7071A639A070072
S31520003A80B7970020379700201307473023A0E71A5F
S31520003A90B797002083A7071A2326F4FEB79700209E
S31520003AA003A7071A8327C4FD3307F700B7A700200B
S31520003AB0938747B063FEE700EF30C0071307050082
S31520003AC09307C0002320F7009307F0FF6F00000242
S31520003AD0B797002003A7071A8327C4FD3307F700EB
S31520003AE0B797002023A0E71A8327C4FE1385070073
S31520003AF08320C10203248102130101036780000091
S31520003B00130101FE232E1100232C81001304010230
S31520003B1013000000EFF0DF9893070500E39C07FEF3
S31520003B20B717024083A68701B71702403747000020
S31520003B3033E7E60023ACE700B717024003A7870167
S31520003B40B71702401367470023ACE700B7170240B8
S31520003B5003A78701B71702401367170023ACE700B6
S31520003B60B717024003A78701B7170240136707025A
S31520003B7023ACE700B717024003A78701B717024017
S31520003B801367070423ACE700B717024083A6C700D4
S31520003B90B7170240374700001307070633E7E6004A
S31520003BA023A6E700B717024083A6C700B71702402F
S31520003BB037C7FFFF1307F7F933F7E60023A6E70019
S31520003BC0B71701409387478003A70700B71701401F
S31520003BD0938747801367070B23A0E700B717014099
S31520003BE09387478003A70700B7170140938747802D
S31520003BF01367074023A0E700B74701409387078054
S31520003C001307204E2394E700B74701409387078088
S31520003C10372700001307C7002396E700B71702408F
S31520003C2003A7C701B71702401367070123AEE700B2
S31520003C30B717024003A70701B7170240136707010A
S31520003C4023A8E700B717024003A70701B7170240CA
S31520003C501377F7FE23A8E700B717024003A7C7018B
S31520003C60B71702401367070223AEE700B7170240D3
S31520003C7003A70701B71702401367070223A8E70027
S31520003C80B717024003A70701B71702401377F7FDBE
S31520003C9023A8E700B797002023A0071AB79700208C
S31520003CA0938707182326F4FEB7970020938747307B
S31520003CB02324F4FE6F0040018327C4FE13871700D8
S31520003CC02326E4FE238007000327C4FE832784FEE1
S31520003CD0E364F7FEB797002083A7C71783A747009B
S31520003CE093060000130620009305000013850700A5
S31520003CF0EF201045B797002083A7C71783A7870013
S31520003D009306000013062000930500001385070084
S31520003D10EF201043B797002083A7C71783A7C700B4
S31520003D209306000013062000930500001385070064
S31520003D30EF201041130000008320C10103248101DC
S31520003D401301010267800000130101FF23261100E1
S31520003D502324810013040101130000008320C100E5
S31520003D60032481001301010167800000130101FE75
S31520003D70232E1100232C8100130401022326A4FEE6
S31520003D808327C4FE638A07008325C4FEB7970020D5
S31520003D90138587CBEF20D035EFF01FFB13000000F3
S31520003DA08320C101032481011301010267800000E1
S31520003DB0130101FE232E1100232C8100130401027E
S31520003DC02326A4FE9307F0FF138507008320C10155
S31520003DD0032481011301010267800000130101FE03
S31520003DE0232E1100232C8100130401022326A4FE76
S31520003DF02324B4FE2322C4FE9307F0FF1385070075
S31520003E008320C10103248101130101026780000080
S31520003E10130101FE232E1100232C8100130401021D
S31520003E202326A4FE2324B4FE832784FE37270000FE
S31520003E3023A2E70093070000138507008320C10112
S31520003E40032481011301010267800000130101FE92
S31520003E50232E1100232C8100130401022326A4FE05
S31520003E602324B4FE2322C4FE9307000013850700F3
S31520003E708320C10103248101130101026780000010
S31520003E80130101FE232E1100232C810013040102AD
S31520003E902326A4FE93070000138507008320C10173
S31520003EA0032481011301010267800000130101FD33
S31520003EB0232611022324810213040103232EA4FCAA
S31520003EC0232CB4FC232AC4FC832744FD2326F4FE9A
S31520003ED06F00C001832784FD13871700232CE4FC81
S31520003EE083C7070013850700EFF01FB1832744FD22
S31520003EF01387F7FF232AE4FCE39E07FC8327C4FEEF
S31520003F00138507008320C1020324810213010103C4
S31520003F1067800000130101FD23261102232481025C
S31520003F2013040103232EA4FC232CB4FC232AC4FC53
S31520003F30232604FEEFF05FA693070500A305F4FEF3
S31520003F408347B4FE63820702832784FD1387170005
S31520003F50232CE4FC0347B4FE2380E7008327C4FE1A
S31520003F60938717002326F4FE032744FD8327C4FEE8
S31520003F70E312F7FC8327C4FE138507008320C102C2
S31520003F80032481021301010367800000130101FF4E
S31520003F902326110023248100130401019307000026
S31520003FA0138507008320C10003248100130101012A
S31520003FB067800000130101FE232E1100232C8100AF
S31520003FC0130401022326A4FE2324B4FE9307000033
S31520003FD0138507008320C1010324810113010102F7
S31520003FE06780000013070600938806001308050063
S31520003FF01383050063940624B7970020938787CD03
S3152000400063F4C50EB70601006370D60C933606100E
S3152000401093B6160093963600335ED600B387C70153
S3152000402083C70700B387D70093060002638ED700A5
S31520004030B386F6403393D500B357F5003317D60031
S3152000404033E367003318D50013550701B357A3028E
S315200040509315070193D50501935608013373A302DF
S315200040603386F50213130301B3E6660063FAC6002E
S31520004070B306D70063F4C60063F2E6069387F7FF1C
S31520004080B386C64033D6A602131808011358080172
S31520004090B3F6A602B385C502939606013368D80007
S315200040A0637AB800330807016374B8006374E818AC
S315200040B01306F6FF93970701B3E7C700138507009A
S315200040C09385080067800000370E00019306800163
S315200040D0E374C6F5930600016FF01FF49387E7FF9C
S315200040E0B386E6006FF0DFF993060000630C060046
S315200040F0B70601006378D6069336061093B61600E7
S3152000410093963600B358D600B387170183C70700A6
S31520004110B387D700930600026390D7063386C5403F
S315200041209308100013550701B357A60293150701EC
S3152000413093D50501935608013376A6023383F502FB
S3152000414013160601B3E6C60063FA6600B306D70067
S3152000415063F4660063FAE60C9387F7FFB38666403E
S315200041606FF05FF2B708000193068001E37C16F931
S31520004170930600016FF01FF93388F64033170601C6
S31520004180B3D6F500B3950501B357F50033180501ED
S3152000419013550701B3D8A6021316070113560601B5
S315200041A0B3E7B700B3F6A6023303160393950601C9
S315200041B093D60701B3E6B60063FA6600B306D700C6
S315200041C063F4660063F6E6049388F8FFB3866640D8
S315200041D0B3D5A6029397070193D70701B3F6A60294
S315200041E03306B60293960601B3E7D70063FAC700F3
S315200041F0B307F70063F4C70063F2E7029385F5FF80
S31520004200939808013386C740B3E8B8006FF09FF152
S315200042109388E8FFB386E6006FF05FFB9385E5FFA2
S31520004220B387E7006FF0DFFD9387E7FFB386E600ED
S315200042306FF0DFF21306E6FF6FF0DFE763E4D518D1
S31520004240B707010063F4F60493B7061093B7170077
S31520004250939737003797002033D8F600130787CD7A
S315200042603307070103470700130800023307F70047
S3152000427063180703B337C50093B71700B3B6B60064
S31520004280B3E7D700930800006FF05FE3370700011C
S3152000429093078001E3F0E6FC930700016FF09FFB94
S315200042A03308E840B358E600B3960601B3E8D800D1
S315200042B013DE0801B3D6E500B3D7C603139308016E
S315200042C013530301B39505013357E5003367B70050
S315200042D033160601B3F6C603B30EF3029395060111
S315200042E093560701B3E6B60063FAD601B386D80023
S315200042F063F4D60163FC160B9387F7FFB386D6418A
S31520004300B3D5C6031317070113570701B3F6C60320
S315200043103303B302939606013367D700637A6700A7
S315200043203387E80063746700637817099385F5FF80
S3152000433093970701B3E7B7003307674093950501C5
S315200043401313060193D5050193D8070113530301CF
S3152000435013560601338E65023383680293560E0187
S31520004360B385C502B3856500B386B600B388C80297
S3152000437063F6660037060100B388C80013D6060127
S31520004380330616016360C702131E0E0193960601BB
S31520004390135E0E0133150501B386C601E374D5EE0F
S315200043A0E312C7EE9387F7FF6FF0DFED9387E7FF02
S315200043B0B38616016FF09FF49385E5FF3307170147
S315200043C06FF01FF793080000930700006FF01FCFD0
S315200043D01308060093070500138705006394062437
S315200043E0B7960020938686CD63F8C50EB7080100E0
S315200043F0637A160D9338061093B8180093983800F0
S3152000440033531601B386660083C6060013030002E3
S31520004410B3861601B308D340638C66003397150123
S31520004420B356D5003318160133E7E600B317150146
S3152000443013550801B356A70213130801135303019A
S315200044403377A702B38666029315070113D70701B0
S315200044503367B7006370D7023307E800B335070127
S315200044603336D70093B515003376B60033060603E8
S315200044703307E6003307D740B356A7023377A702A0
S31520004480B386660213950701131707011355050115
S315200044903365E5006370D5023305A800333705017F
S315200044A0B337D50013371700B3F7E700B3870703F1
S315200044B03385A7003305D5403355150193050000F4
S315200044C0678000003703000193088001E37A66F2D3
S315200044D0930800016FF0DFF213070000630C06005B
S315200044E0370701006374E6081337061013371700E1
S315200044F013173700B358E600B386160183C60600A5
S31520004500B386E60013070002B308D740639AE6068F
S31520004510B386C5409355080133D6B6021313080156
S315200045201353030113D70701B3F6B6023306660207
S31520004530939606013367D7006370C7023307E800F6
S3152000454033350701B336C70013351500B3F6A60079
S31520004550B38606033387E6003307C740B356B70250
S315200045603377B702B38666026FF0DFF1B708000132
S3152000457013078001E37016F9130700016FF09FF708
S315200045803318160133D7D500B3171501B395150186
S31520004590B356D50013550801B3E6B600B355A702A6
S315200045A0131E0801135E0E013377A702B385C503D8
S315200045B01316070113D706013367C7006370B702C6
S315200045C03307E800333307013336B70013331300BC
S315200045D033766600330606033307E6003307B74013
S315200045E03356A7029396060193D606013377A70280
S315200045F03306C60313170701B3E6E60063F0C602C7
S31520004600B306D800B3B5060133B7C60093B5150077
S315200046103377B70033070703B306D700B386C64000
S315200046206FF05FEF63E6D51A3708010063FC0605D5
S3152000463093B8061093B8180093983800379800203E
S3152000464033D31601130888CD3308680003480800C1
S315200046503308180193080002631018056374C50017
S3152000466063FCB6003307C54093070700B386D540E1
S315200046703337E5003387E6401385070093050700A7
S31520004680678000003708000193088001E3F806FBE5
S31520004690930800016FF09FFAB3880841B39616017C
S315200046A0335306013363D30033D70501935E0301E9
S315200046B0B356D703131E0301135E0E01B3971501DC
S315200046C0B3550501B3E5F50093D705013316160159
S315200046D0331515013377D703330FDE02131707017E
S315200046E0B3E7E70063FAE701B307F30063F4E701F2
S315200046F063F2670E9386F6FFB387E74133D7D70376
S315200047009395050193D50501B3F7D703330EEE0232
S3152000471093970701B3E5F50063FAC501B305B30026
S3152000472063F4C50163FE650A1307F7FF9396060136
S31520004730B3E6E600B385C54113170701131E06012C
S31520004740935706011357070193D60601135E0E01F0
S31520004750B30EC703338EC6033307F702B386F602BA
S31520004760B307C70113D70E013307F7006376C701D6
S31520004770B7070100B386F60093570701939E0E01F3
S315200047801317070193DE0E01B387D7003307D7012E
S3152000479063E6F500637EE500639CF5003306C740BB
S315200047A0B336C700B386660013070600B387D74023
S315200047B03307E5403335E500B385F540B385A5409D
S315200047C033980501335717013365E800B3D5150132
S315200047D0678000009386E6FFB38767006FF0DFF1FE
S315200047E01307E7FFB38565006FF05FF4130101FE41
S315200047F0232E1100232C8100232A91002328210116
S315200048002326310123244101732920003707100074
S315200048101307F7FFB377B70093D945013377D7004E
S3152000482093D8460193D4F501939737009355D50134
S315200048301317370093F9F97FB3E7F50093F8F87F5C
S315200048409355D60193D6F601B3E5E5001315350049
S3152000485013163600338719411308F07F6398D44620
S31520004860635CE01463900806B3E6C500639A06000D
S315200048701306050063080703930900006F00C0288C
S315200048809306F7FF639E06003306C500B385B7007F
S315200048903335A600B387A500130710006F00400A22
S315200048A0631C070533E6A700E306060493D96701D0
S315200048B093F9190093C91900939949001306050025
S315200048C06F0080246394090333E6A700E3040618E7
S315200048D093D6670193F6160093C616001387090030
S315200048E013060500939946006F000022B706800044
S315200048F0B3E5D50093060700130780036348D70A5C
S315200049001307F00193080002634AD706B388D840FC
S31520004910339715013358D600B318160133670701AC
S31520004920B338100133671701B3D6D5003306A70075
S315200049303337E600B386F600B387E600138709000F
S315200049409396870063DC062A130717009306F07FE9
S31520004950630CD732B70680FF9386F6FFB3F7D700EE
S315200049609356160013761600B3E6C6001396F70183
S315200049703366D60093D717006F004028138706FEAC
S3152000498033D7E500130800006388160113080004D6
S315200049903308D840339805013368C80033380001FE
S315200049A033670701930600006FF05FF833E7C50011
S315200049B03337E0006FF01FFF630407103387384159
S315200049C063940904B3E6A70063960602938705005D
S315200049D0631C0713B3E7C5006388075293D96501A3
S315200049E093F9190093C919009399490093870500F3
S315200049F06F0080119306F7FFE38806E8631E07031E
S31520004A00B3E7C5006FF05FFD63920803B3E7C50007
S31520004A10E38E070493D9650193F9190093C9190008
S31520004A2093994900938705006F00801AB706800086
S31520004A30B3E7D7009306070013078003634CD70616
S31520004A401307F00113030002634ED7023303D3404A
S31520004A50339767003358D500331365003367070152
S31520004A603333600033676700B3D6D7003306C700F9
S31520004A703337E600B386B600B387E600138708000F
S31520004A806FF01FEC138706FE33D7E70013080000EC
S31520004A9063886600130800043308D840339807015A
S31520004AA03368A800333800013367070193060000F6
S31520004AB06FF0DFFB33E7A7003337E0006FF01FFF0F
S31520004AC0138719009376E77F6398061033E7A700CC
S31520004AD06398090A6308076833E7C500630C07680B
S31520004AE03306C500B385B7003335A600B387A500C6
S31520004AF013978700635A0756370780FF1307F7FF78
S31520004B00B3F7E700130710009396D7011356360024
S31520004B1033E6C6009306F07F93D73700631ED7008F
S31520004B203366F6009307000063080600B7070800FF
S31520004B3013060000930400001377F77F9397C700AE
S31520004B401317470193D7C7003367F7009394F401EF
S31520004B5013050600B36597006384090073A0190046
S31520004B608320C101032481018324410103290101FA
S31520004B708329C100032A81001301010267800000F6
S31520004B80639A09036308070293D9670193F9190009
S31520004B9093C919009399490063960803B3E6C500A3
S31520004BA0638006029396950063CC06009309000164
S31520004BB06F0000019306F07F93090000E380D8FE82
S31520004BC0E30207E6B3E5C50063900540130605003A
S31520004BD01307F07F6FF05FF3630807033306C50002
S31520004BE0B385B7003335A600B385A5009397F501A5
S31520004BF01356160033E6C70093D715009306000018
S31520004C00930900006F00804C630E09629307300001
S31520004C10631AF90863880462930600009307F0FF7D
S31520004C201307E07F13860700930950009305300091
S31520004C306308B958631009029375F60013054000FE
S31520004C40638AA500B305A60033B5C500B387A700C0
S31520004C50138605006388060093F6190093961600BE
S31520004C60B3E9D90093968700E3D006EA1307170025
S31520004C709306F07F630AD758B70680FF9386F6FF20
S31520004C80B3F7D7006FF05FE8630E095A9307300039
S31520004C90631AF9006388045A9307F0FF930600000D
S31520004CA06FF01FF8930720006316F954639C04588D
S31520004CB09307F0FF1307E07F138607009309500040
S31520004CC093860400930400006FF0DFF86356E00E2D
S31520004CD0639C0808B3E6C500E38C06B89306F7FF85
S31520004CE0639E06003306C540B385B7403335C500FD
S31520004CF0B387A540130710006F000005E30407BB28
S31520004D00130780036344D70A1307F00193080002B0
S31520004D106346D706B388D840339715013358D60053
S31520004D20B318160133670701B3381001336717012B
S31520004D30B3D6D5003306E540B386D7403335C50014
S31520004D40B387A6401387090093968700E3D806EA1F
S31520004D50370480001304F4FF33F48700130A060097
S31520004D60930907006F00402AE38009B7B706800041
S31520004D70B3E5D500930607006FF09FF8138706FE6C
S31520004D8033D7E500130800006388160113080004D2
S31520004D903308D840339805013368C80033380001FA
S31520004DA033670701930600006FF0DFF833E7C5008D
S31520004DB03337E0006FF01FFF630207123387384155
S31520004DC06396090A33E3A70063140302631E0701EF
S31520004DD0B3E7C5006386074893D9650193F919009F
S31520004DE093C9190093994900938406006FF01FC058
S31520004DF01303F7FF631003023305A6403337A600DB
S31520004E00B385F54013060500B387E5409384060075
S31520004E106FF05FEEE30E07FB13078003634A670A12
S31520004E201307F001130E0002634C6706330E6E4023
S31520004E303397C70133586500331EC5013367070111
S31520004E40333EC0013367C70133D367003307E640DB
S31520004E50B337E6003383654013060700B307F340F4
S31520004E6013870800938406006FF01FEE63920803F1
S31520004E70B3E7C500638A073E93D9650193F9190004
S31520004E8093C9190093994900938406006FF09FB93E
S31520004E9037088000B3E70701130307006FF0DFF739
S31520004EA0130703FE33D7E700130800006308C30186
S31520004EB01308000433086840339807013368A800B4
S31520004EC03338000133670701130300006FF01FF822
S31520004ED033E7A7003337E0006FF01FFF1383190075
S31520004EE01373E37F631A030E33EEA70033E3C50083
S31520004EF063980906631E0E00631A03269307E9FFCB
S31520004F0093B4170093070000130600006FF0DFBF6D
S31520004F1063020326B308C540333315013388B740EF
S31520004F203308684013138800635003023305A640F4
S31520004F303337A600B385F54013060500B387E54051
S31520004F40938406006F00401233E608016318062298
S31520004F509307E9FF93B41700930700006FF0DFBAB9
S31520004F60639A090363000E3293D9670193F91900F6
S31520004F7093C91900939949006396080563000302B3
S31520004F8013979500634C070093090001E30E0EEE7C
S31520004F906F00800393090000E38208FF63140E026A
S31520004FA0E31403EE9304000013060000B707400045
S31520004FB01307F07F930900016FF01FB593090000D6
S31520004FC06FF0DFFBE30403C093040000B707400043
S31520004FD0130600006FF0DFBF3308C540B338050164
S31520004FE03384B7403304144193188400130A08000D
S31520004FF063DA080E330AA6403384F5403336460179
S315200050003304C44093840600630A040E1305040087
S31520005010EF105005130785FF93070002B387E7407B
S315200050203314E400B357FA00B3E787003314EA00D9
S31520005030634E371133073741930517001306F001E6
S3152000504093060002634CB60CB386B6403396D7005F
S315200050503357B400B316D4003366E600B336D00017
S315200050603366D600B3D7B70033E7C70063060720F9
S315200050701357F60193961700B386E600131716000A
S315200050809375770093090000638A05029305200033
S31520005090630AB910930530006308B90E930910000E
S315200050A0631E09009375F700130540006388A50069
S315200050B01337C7FF13371700B386E60093D686014A
S315200050C093F6160093C61600130700009375760014
S315200050D0E38205B893052000630AB90E93091000F0
S315200050E06FF0DFB433668800E31006F29307E9FF1A
S315200050F093B41700930700006FF00FF813050A000A
S31520005100EF104076130785019307F001E3D6E7F009
S31520005110930785FFB317FA006FF09FF1130717FE69
S3152000512033D7E700130600006388D5001306000472
S315200051303306B6403396C7003366C4003336C00004
S315200051403366C700930700006FF01FF2B70680FF93
S315200051509386F6FF3387E940B3F7D700130604009A
S315200051606FF0DFA9938705006FF01FF09387050086
S315200051706FF01FDD130605006FF01FEF9307080081
S31520005180138608006FF05FEE93890400E39804F21B
S31520005190133787FF13371700B386E60093091000ED
S315200051A06FF0DFF193091000E38A04F0133787FFCD
S315200051B013371700B386E600938904006FF01FF0BB
S315200051C0E39A04A8930586006FF01FA89385040030
S315200051D09309100093840600E38405AE1305860028
S315200051E03338C500B38707011306050093840500ED
S315200051F06FF05FA69307F0FF1307E07F1386070083
S31520005200930950006FF01FA61306000063060902DB
S3152000521093073000631AF900638004021306F0FF37
S315200052201307E07F6F0040019307E9FFE39807FE2D
S3152000523093F71400E38407FE93E9590093070600C9
S315200052406FF09F8C9307000013060000930950000F
S315200052506FF09F8B93070000138709006FF0CFE153
S31520005260938406006FF05FCA93840600130600003D
S31520005270138708006FF04FE0930700001306000025
S315200052806FF08FDFE38C38D3930900006FF05FD186
S31520005290130101FD23248102232A510123248101A4
S315200052A0232611022322910223202103232E3101BA
S315200052B0232C4101232861012326710123229101F8
S315200052C013040500130C0600938A0600F32420001D
S315200052D093DB45011399C50093FBFB7F1359C90046
S315200052E013DBF501638A0B029307F07F638CFB08BF
S315200052F0131939009357D501B3E7270137098000E1
S3152000530033E92701131A3500938B1BC0930C000039
S31520005310930900006F00C008336AA90063000A12CF
S315200053206302090413050900EF10C0531307050093
S31520005330930655FF9307D001130687FFB387D740FF
S315200053403319C900B357F400B3E727013319C40052
S31520005350930BD0C0130A0900B38BEB4013890700C7
S315200053606FF0DFFAEF100050930655019307C00146
S3152000537013070502E3D0D7FC930785FFB317F40084
S315200053806FF01FFD336AA90063020A0CB7090800F3
S31520005390B339390193994900130A0500930C30005B
S315200053A013D74A011394CA001377F77F93070C008B
S315200053B01354C40093DAFA016300070A9306F07FB8
S315200053C06304D710131434009357DC01B3E7870026
S315200053D03704800033E48700130717C093173C0077
S315200053E093060000B38BEB0013972C003367D7008E
S315200053F01306A00013881B00634CE6121305200039
S31520005400B3455B01130610006342E5101307F7FF4F
S315200054106360E614938C0600130720006384EC5E19
S31520005420130730006388EC5E13071000639EEC2C94
S3152000543013070000130500006F00805913090000B0
S31520005440930B0000930C10006FF09FEC13090000E3
S31520005450930C20006FF0DFEBB367840163820708AB
S315200054606302040413050400EF10C03F93070500F0
S31520005470130755FF9306D001138687FFB386E640B0
S315200054803314C400B356DC00B3E686003314CC00D4
S315200054901307D0C03307F740930704001384060090
S315200054A06FF01FF413050C00EF10C03B13075501D6
S315200054B09306C00193070502E3DEE6FA930685FF0D
S315200054C0B316DC006FF0DFFC336C840163020C0240
S315200054D0B70608006366D402930630006FF09FF08B
S315200054E01304000013070000930610006FF09FEFCF
S315200054F01304000093070000930620006FF09FEE30
